:060000000A128A1100291A
:100200000B2107181F21871826210719322187196A
:1002100039214B210129831603178801890183168F
:10022000031385018601880183120313850186016A
:1002300088010800A5308000800B1C2908001A21C5
:1002400007182029850A051A850108001A21871830
:1002500027298503851B2D2108000512851205130A
:10026000851308001A2107193329860A061A860100
:1002700008001A2187193A298603861B40210800A5
:1002800006128612061386130800031383160F172F
:0E0290008F120F1208000608050788000800EC
:04400E00D420FF3F7C
:00000001FF
